:100AAC0043BA8075B21075B103120742120B4AD2C9
:100ABC00AF1202C93002FAC2021208FBC2B480F1B2
:010ACC002207
:1007420053B2FC43B10390FE077480F090FE07E0C1
:10075200FF30E0F875DC0075F4907D007F00120B2D
:10076200377D817F01120B377D3F7F07120B377D6B
:100772003F7F09120B377D077F0B120B377D017FFD
:1007820001120B37751002751100751700751800EC
:06079200C20043AF80220B
:020B09008F3E1D
:100B0B00E5FC20E7FBE53E4480F5FCE5FC20E7FB3C
:050B1B0085EC3FAF3F37
:010B200022B2
:100B37008F408D41E5FC20E7FBE540547FF5FC85C0
:030B470041EC225C
:080930008F198B1A8A1B891C28
:100938007F16120B098F1D8F1EAF1D151DEF601935
:10094800AF19120B09AB1A051CE51CAA1B7002058E
:0B0958001B14F9EF1207B180E0AF1E86
:010963002271
:1009C8008F2A8B2B8A2C892DAF2E152EEF6019AB11
:1009D8002B052DE52DAA2C7002052C14F912079869
:0909E800FDAF2A120B3780E0225A
:0300CB0002059A91
:10059A00C0E0C0F0C083C082C0D075D000C000C027
:0D05AA0001C002C003C004C005C006C007A8
:1005B7007F06120B098F387F02120B098F397F04D0
:1005C700120B098F3AE53830E10312000AE538309B
:1005D700E203120998E53930E003120514E53930D2
:1005E700E1031209F1E53A30E103120A89E53830EF
:0505F700E003120BA35C
:1005FC00D007D006D005D004D003D002D001D00053
:0B060C00D0D0D082D083D0F0D0E032FC
:01000A0022D3
:100998007D007F00120B377510027511000D7F0E58
:1009A800120B377D487F11120B377D017F0E120B1A
:1009B800377D907F14120B377D007F0E120B372284
:010BA300222F
:100514007D007F0E120B377F11120B098F1FE51F11
:1005240030E20B54FBFD7F11120B37751100E51FF0
:1005340030E4084480FD7F11120B37E5111207C324
:1005440005510005920305960400000599E51F3046
:10055400E0437B007A0079087F20120930AF0FAEA8
:100564000E1200BC8E0E8F0FE5085460FF1207C3F5
:100574000581000585200589400000058D1206E8E7
:10058400221208C422120B9422120B6B222212068E
:0505940082221207E9BC
:01059900223F
:0B0B6B007511057D607F11120B372211
:0E0B5D007511037D407F11120B3712068222A4
:0B0B76007511047D407F11120B372227
:0B0B81007511007D487F11120B372218
:100682007D007F0E120B377F11120B098F42E5425C
:1006920020E152D3E5139440E512940040047F40D8
:1006A2008002AF138F43AB14AA15A91685432E7F80
:1006B200201209C8AF437E00C3E5139FF513E5126C
:1006C2009EF512EF2516F516EE3515F515E51345CF
:1006D20012700B7D0A7F11120B37751100227D02F9
:0506E2007F11120B372F
:0106E70022F0
:1007E9007D007F0E120B377F11120B098F44E544F0
:1007F90030E03CAB14AA15A9167F201209308F45A9
:100809007E00C3E5139FF513E5129EF512EF251639
:10081900F516EE3515F515E5134512700B7D487F74
:0F08290011120B37751100227D407F11120B3712
:01083800229D
:080AED008B2F8A3089318D3214
:100AF500E5322420FF1209308F337D007F14120B5D
:030B050037AF33D4
:010B080022CA
:1009F1007D017F0E120B377F11120B098F46E546E1
:100A010030E5077D407F11120B37E54630E2077D67
:080A1100007F11120B37C20037
:010A190022BA
:100A89007D017F0E120B377F14120B098F47E54743
:100A990030E6077D807F14120B37E54730E00312FB
:020AA9000BA49C
:010AAB002228
:10000E001201000200000040BF3403FF0001010294
:10001E0000010902290001010080320904000002DA
:10002E0003010100092101010001224100070581A0
:10003E000308000A0705010301000A05010906A1CC
:10004E0001050719E029E7150025017501950881BD
:10005E000275089501810119002965150025657540
:10006E00089506810005081901290315002501755B
:10007E000195039102750595019101C004030904D0
:10008E00080353005400430022035300540043005E
:10009E00200055005300420020004B0065007900FF
:0E00AE0062006F00610072006400000001003B
:06000300013B00013C146A
:1008C400E5091207C308DF0108E70208EF0308E39C
:1008D4000908EB0A08F30B000008F7120A1A22129F
:1008E4000A3F22120A6422120B2122120B8C2212BA
:0708F4000B9022120B6B2296
:100A1A00E510B40406E50864A16004120B6B227B9E
:100A2A00017A0079008B148A158916850E12850FB2
:050A3A0013120B5D2208
:100A3F00E510B40406E50864216004120B6B227BF9
:100A4F00017A0079008B148A158916850E12850F8D
:050A5F0013120B7622CA
:100A6400E510B40406E50864A16004120B6B227B54
:100A7400007A00793D8B148A158916751200751356
:050A840001120B5D22D0
:100B2100E510B40406E50864216004120B6B22850C
:060B31000B3D120B8122B6
:040B8C00120B6B22BB
:040B9000120B6B22B7
:010BA400222E
:1002C900E5106404600302036D30000302036D202E
:1002D900010302036DC201F521F522F523F524F589
:1002E90025F526F527F528E53B1207C30311160363
:1002F900347F032FBF032ADF0325EF0320F7031BF6
:10030900FB0316FD00000339752316802675231F8C
:100319008021752320801C75232180177523228055
:1003290012752323800D75232480087523258003E6
:1003390075230053AF7FD2007D017F0E120B3775F5
:100349002900E529C394085011AF2974212FF8E633
:10035900FD7F21120B37052980E87D017F11120BE2
:040369003743AF80E7
:01036D00226D
:1008FB0030B60320B715E53C602A153CE53C702467
:10090B00753B16D201D2B4753C142220B60330B716
:10091B0013E53C600F153CE53C7009D201C2B4F500
:05092B003B753C1422A5
:0400BC008E348F35BA
:0A00C000853536853437AE36AF378C
:0100CA002213
:100B4A00C202438E805389F0758A40758CA2D28C7A
:030B5A00D2A922FB
:03000B00020BA045
:030BA000D202324C
:040B9400120B6B22B3
:1006E800E5091207C3071200071601071A03071EB8
:1006F80005072206072607072A08072E0907320AD0
:1007080007360B073A0C0000073E1200CE221203F0
:100718006E22120489221208892212020122120B67
:100728009822120839221206172212096422120A84
:0A073800CD22120B9C22120B6B2243
:1000CE00E50830E710E50B700CE50A7008E50F64E3
:1000DE0002450E6004120B6B22E508540FFF120747
:1000EE00C300FC00011D01014302000001F9E50DF2
:1000FE007004E50C6004120B6B227BFF7A0079B85A
:10010E008B148A1589167512007513020201FDE50E
:10011E0010B40408E50D7004E50C6004120B6B229C
:10012E007BFF7A0079B88B148A15891675120075C3
:10013E0013020201FDE510B40404E50D6004120B78
:10014E006B22E50C540FF549E50C1207C301AC0107
:10015E00016581000001F3AF497E007401A8070814
:10016E008005C333CE33CED8F9FFAD177C00EEEC4D
:10017E00FEEF5DFF60147BFF7A0079BA8B148A154F
:10018E00891675120075130280657BFF7A0079B8A7
:10019E008B148A1589167512007513028051AF499A
:1001AE007E007401A807088005C333CE33CED8F97C
:1001BE00FFAD187C00EEECFEEF5DFF60147BFF7A66
:1001CE000079BA8B148A1589167512007513028080
:1001DE001E7BFF7A0079B88B148A1589167512006A
:1001EE00751302800A120B6B228004120B6B221203
:0201FE000B5D97
:0102000022DB
:10036E00E510B40417E508B40212E50D700EE50BA6
:10037E00700AE50A7006E50F450E6004120B6B223B
:10038E00E50C540FF54AE50C1207C303CC0103A389
:10039E0081000003F5AF4AA8077401088002C33339
:1003AE00D8FCFFF4FF5217AD4A7F0E120B377D407B
:1003BE007F11120B377D007F0E120B37802DAF4A47
:1003CE00A8077401088002C333D8FCFFF4FF52184B
:1003DE00AD4A7F0E120B377D807F14120B377D00D6
:0E03EE007F0E120B378004120B6B22120B8154
:0103FC0022DE
:10048900E510B40417E508B40212E50D700EE50B8A
:10049900700AE50A7006E50F450E6004120B6B221F
:1004A900E50C540FF54BE50C1207C304E50104BE36
:1004B900810000050CAF4BA8077401088002C33303
:1004C900D8FCFF4217AD4B7F0E120B377D107F1101
:1004D900120B377D007F0E120B37802BAF4BA8070D
:1004E9007401088002C333D8FCFF4218AD4B7F0E5C
:1004F900120B377D207F14120B377D007F0E120BF4
:0A050900378004120B6B22120B81E5
:0105130022C5
:10088900E5087019E50D7015E50C7011E50B700D93
:10089900E50AC394805006E50F450E6004120B6B00
:1008A90022850A4CAD4C7F00120B37E54C6005756B
:0A08B90010038003751002120B817A
:0108C3002212
:10020100E50820E704120B6B22E50B1207C3021F5E
:1002110001023402024803029C22000002B07BFF6B
:100221007A00790E8B148A158916751200751312CE
:100231000202B47BFF7A0079208B148A1589167526
:100241001200751329806CE50A1207C3025A0002D5
:100251006E01028202000002967BFF7A00798A8B8E
:10026100148A15891675120075130480467BFF7A6E
:1002710000798E8B148A1589167512007513088002
:10028100327BFF7A0079968B148A158916751200D4
:10029100751322801E120B6B2280187BFF7A007966
:1002A100498B148A15891675120075134180041241
:1002B1000B6B22D3E513950FE512950E4006850EC3
:0802C10012850F13120B5D22E0
:040B9800120B6B22AF
:10083900E508B48018E50B7014E50A7010E50D7031
:100849000CE50C7008E50F6401450E6004120B6B92
:1008590022E510B404147BFF7A0079BA8B148A1547
:10086900891675120075130180127BFF7A0079B819
:100879008B148A158916751200751301120B5D22E6
:10061700E51064026016E5087012E50B700EE50D33
:10062700700AE50C7006E50F450E6004120B6B228D
:10063700E50A64017038751004F517F5187D017F18
:100647000E120B377D207F12120B377D087F101299
:100657000B377D017F0E120B371D7F12120B377D73
:10066700080F120B377D007F0E120B3780097510AC
:0B067700037517FF7518FF120B81229E
:10096400E510B40415E508B48110E50B700CE50D31
:100974007008E50F6401450E6004120B6B227BFFC7
:100984007A0079B88B148A158916751200751301CB
:04099400120B5D22C3
:100ACD00E510B40413E508B4010EE50B700AE50D4D
:100ADD007006E50F450E6004120B6B22120B81227E
:040B9C00120B6B22AB
:030000000203FDFB
:0C03FD00787FE4F6D8FD75814C020444C2
:10079800BB010689828A83E0225002E722BBFE025F
:0907A800E32289828A83E4932292
:1007B100BB010689828A83F0225002F722BBFE0127
:0207C100F32221
:1007C300D083D082F8E4937012740193700DA3A3C5
:1007D30093F8740193F5828883E4737402936860D9
:0607E300EFA3A3A380DFD9
:10040900020AACE493A3F8E493A34003F68001F253
:1004190008DFF48029E493A3F85407240CC8C333F4
:10042900C4540F4420C8834004F456800146F6DFC3
:10043900E4800B0102040810204080900003E47E50
:10044900019360BCA3FF543F30E509541FFEE493B8
:10045900A360010ECF54C025E060A840B8E493A37F
:10046900FAE493A3F8E493A3C8C582C8CAC583CAAA
:10047900F0A3C8C582C8CAC583CADFE9DEE780BE62
:0100090000F6
:00000001FF
